:020000040000FA
:100000000C9462000C948A000C948A000C948A0070
:100010000C948A000C948A000C948A000C948A0038
:100020000C948A000C948A000C948A000C948A0028
:100030000C948A000C948A000C948A000C948A0018
:100040000C947E070C948A000C944C070C942607A1
:100050000C948A000C948A000C948A000C948A00F8
:100060000C94C8070C948A000000000024002700AC
:100070002A0000000000250028002B0000000000DE
:1000800023002600290004040404040404040202DA
:100090000202020203030303030301020408102007
:1000A0004080010204081020010204081020000012
:1000B0000008000201000003040700000000000027
:1000C0000000280911241FBECFEFD8E0DEBFCDBF4E
:1000D00011E0A0E0B1E0E2E1F5E202C005900D928E
:1000E000AE3CB107D9F723E0AEECB1E001C01D9200
:1000F000A63DB207E1F710E0C2E6D0E004C02197C8
:10010000FE010E943512C136D107C9F70E94170AB5
:100110000C9487120C940000AF92BF92CF92DF92A2
:10012000EF92FF920F931F93CF93DF936C017B01AC
:100130008B01040F151FEB015E01AE18BF08C0173D
:10014000D10759F06991D601ED91FC910190F081B0
:10015000E02DC6010995892B79F7C501DF91CF9173
:100160001F910F91FF90EF90DF90CF90BF90AF90D5
:100170000895FC01538D448D252F30E0842F90E0AD
:10018000821B930B541710F0CF9608950197089592
:10019000FC01918D828D981761F0A28DAE0FBF2F5B
:1001A000B11D5D968C91928D9F5F9F73928F90E0B1
:1001B00008958FEF9FEF0895FC01918D828D981720
:1001C00031F0828DE80FF11D858D90E008958FEF5D
:1001D0009FEF0895FC01918D228D892F90E0805C26
:1001E0009F4F821B91098F73992708958CE692E0A7
:1001F0000E94EA0021E0892B09F420E0822F089573
:1002000080E090E0892B29F00E94F60081110C9487
:1002100000000895FC01A48DA80FB92FB11DA35AA9
:10022000BF4F2C91848D90E001968F739927848F16
:10023000A689B7892C93A089B1898C918370806439
:100240008C93938D848D981306C00288F389E02DDA
:1002500080818F7D80830895EF92FF920F931F938B
:10026000CF93DF93EC0181E0888F9B8D8C8D981369
:100270001AC0E889F989808185FF15C09FB7F89475
:10028000EE89FF896083E889F989808183708064C1
:1002900080839FBF81E090E0DF91CF911F910F910C
:1002A000FF90EF900895F62E0B8D10E00F5F1F4F1B
:1002B0000F731127E02E8C8D8E110CC00FB607FC2A
:1002C000FACFE889F989808185FFF5CFCE010E94B8
:1002D0000A01F1CFEB8DEC0FFD2FF11DE35AFF4F1B
:1002E000F0829FB7F8940B8FEA89FB898081806246
:1002F000CFCFCF93DF93EC01888D8823B9F0AA8903
:10030000BB89E889F9898C9185FD03C0808186FDD0
:100310000DC00FB607FCF7CF8C9185FFF2CF80811F
:1003200085FFEDCFCE010E940A01E9CFDF91CF9189
:100330000895833081F028F4813099F08230A9F05B
:1003400008958730A9F08830C9F08430B1F48091E5
:1003500080008F7D03C0809180008F778093800024
:10036000089584B58F7784BD089584B58F7DFBCFC4
:100370008091B0008F778093B00008958091B00095
:100380008F7DF9CF1F93CF93DF93282F30E0F901B2
:10039000E255FF4F8491F901E656FF4FD491F901E0
:1003A000EA57FF4FC491CC23A9F0162F81110E9468
:1003B0009901EC2FF0E0EE0FFF1FEE58FF4FA591D3
:1003C000B4918FB7F894EC91111108C0D095DE2349
:1003D000DC938FBFDF91CF911F910895DE2BF8CF73
:1003E000CF93DF9390E0FC01E656FF4F24918A57AC
:1003F0009F4FFC0184918823D1F090E0880F991FD2
:10040000FC01E859FF4FA591B491FC01EE58FF4F54
:10041000C591D49161110EC09FB7F8948C91E22FD1
:10042000E0958E238C932881E223E8839FBFDF91A0
:10043000CF9108958FB7F894EC91E22BEC938FBF96
:10044000F6CF3FB7F8948091680290916902A0912D
:100450006A02B0916B0226B5A89B05C02F3F19F028
:100460000196A11DB11D3FBFBA2FA92F982F882734
:10047000BC01CD01620F711D811D911D42E0660F0F
:10048000771F881F991F4A95D1F708958F929F92E1
:10049000AF92BF92CF92DF92EF92FF924B015C013D
:1004A0000E9421026B017C010E9421026C197D09CE
:1004B0008E099F09683E734081059105A8F321E0EC
:1004C000821A9108A108B10888EEC80E83E0D81EF0
:1004D000E11CF11C81149104A104B10429F7FF90DF
:1004E000EF90DF90CF90BF90AF909F908F90089546
:1004F0002FB7F89460916402709165028091660252
:10050000909167022FBF0895CF93DF93EC018A8506
:100510009B85AC85BD858E839F83A887B9870E9404
:1005200078026A837B838C839D8381E089838883BF
:10053000DF91CF910895CF93DF93EC018E819F815E
:10054000A885B9858A839B83AC83BD830E9478028A
:100550006A877B878C879D8781E089838883DF9189
:10056000CF9108951F93CF93DF93C1E0C093F8011B
:10057000882399F1D091B8001091BA008091BC0005
:100580008A7B8093BC0060E082E10E94C20160E04F
:1005900083E10E94C20110923D02C0933F0210927B
:1005A0003E0261E082E10E94C20161E083E10E94BB
:1005B000C2018091B9008E7F8093B9008091B9000B
:1005C0008D7F8093B90088E48093B80085E48093A0
:1005D000BC001093BA00D093B800DF91CF911F9167
:1005E000089520911902260F3327331F2132310538
:1005F000ECF420913D02FC0190E080E0243069F0B1
:1006000082E00895A09119022191AC0147505E4FFC
:10061000A40FB52FB11D2C930196861798F38091E6
:100620001902680F6093190280E0089581E008952F
:1006300008958FEF9FEF08958FEF9FEF08958091BA
:10064000F20190E09195819591090895CF92DF9202
:10065000EF92FF920F931F93CF93DF937C01CB0117
:100660008A012091F101222389F0EB016B01C40E74
:10067000D51ECC15DD0569F06991D701ED91FC918E
:100680000190F081E02DC7010995F3CF642F0E94FE
:10069000F102C801DF91CF911F910F91FF90EF9070
:1006A000DF90CF900895CF93DF931F92CDB7DEB741
:1006B00069832091F1012223F9F02091F001203289
:1006C00058F021E030E0FC013383228390E080E0A9
:1006D0000F90DF91CF9108958091EF01E82FF0E026
:1006E000E153FE4F998190838F5F8093EF01809358
:1006F000F00181E090E0ECCF61E0CE0101960E9434
:10070000F102F7CFCF92DF92EF92FF920F931F93F8
:10071000CF93DF93FC01C48121E02093F101C093CA
:10072000CE011092EF011092F0018385682B89E0D1
:1007300093E00E945303D091F001D13208F092C0AF
:100740000E9421026B017C0180913D02811165C0F4
:1007500082E080933D0281E080933F028FEF80939F
:100760003C0210926102D0936002AFECB1E0E0E491
:10077000F2E080E0D81385C010926202809162029C
:10078000CC0FC82BC093620280913E02813009F0E9
:100790007CC010923E020E9421026B017C0180917C
:1007A00062028093BB008091F4019091F501A091C9
:1007B000F601B091F701892B8A2B8B2B99F00E94BF
:1007C00021020091F4011091F5012091F601309180
:1007D000F7016C197D098E099F090617170728076D
:1007E0003907E0F18091BC0083FDD9CF85EC80937F
:1007F000BC000E9421026B017C0180913D0282308D
:1008000009F445C080913C028F3F61F180913C0228
:10081000803241F180913C0225C08091F401909199
:10082000F501A091F601B091F701892B8A2B8B2B52
:1008300009F48ACF0E9421020091F4011091F50180
:100840002091F6013091F7016C197D098E099F09FD
:10085000061717072807390708F076CF8091F301AC
:100860000E94B2021092EF011092F0011092F10179
:10087000DF91CF911F910F91FF90EF90DF90CF907C
:1008800008959D9191938F5F75CF85EEB0CF809144
:10089000F4019091F501A091F601B091F701892B37
:1008A0008A2B8B2B09F4A9CF0E9421020091F4011D
:1008B0001091F5012091F6013091F7016C197D0935
:1008C0008E099F09061717072807390708F095CFE3
:1008D000C5CF089590E080E008950F931F93CF93C4
:1008E0008C01C62F0E9482036C2F6460C8010E9495
:1008F00082036C2F6B7FC8010E94820383EC90E01F
:100900000197F1F7CF911F910F9108950F931F93C6
:10091000CF93DF938C01D62FC42F607F642B0E946E
:100920006D0480E1D89FB00111246C2BC801DF91C8
:10093000CF911F910F910C946D04CF93DF93CDB79E
:10094000DEB728970FB6F894DEBF0FBECDBF88E0A4
:10095000E0E0F1E0DE01119601900D928A95E1F759
:1009600080911D0381111AC08FEF90E0880F991FAD
:1009700021E030E02C0F3D1F820F931FFC016081AE
:10098000606840E085E193E028960FB6F894DEBFFA
:100990000FBECDBFDF91CF910C94860481E0E5CFEF
:1009A00040E061E085E193E00E9486048BE39FE1F3
:1009B0000197F1F7089541E00E94860481E090E0FC
:1009C00008952F923F924F925F926F927F928F92F3
:1009D0009F92AF92BF92CF92DF92EF92FF920F93CE
:1009E0001F93CF93DF93D82FC92F8B010E94840FC1
:1009F00024E630E040E050E00E94131249019B01E0
:100A0000AC0160E876E988E990E00E9403126B018E
:100A10007C01F80191828082ED2FFC2F2191822FA1
:100A2000022E000C990BC0970A97C0F32E3239F5AD
:100A30001F0180E8882E86E9982E88E9A82EB12C1F
:100A40009AE0492E512C612C712CF101C1911F01AA
:100A50000C2E000CDD0BE097CA30D10580F4C501E7
:100A6000B401A30192010E94131249015A01DE014F
:100A70000E944612C60ED71EE81EF91EE6CFA5E05C
:100A8000B0E0A70196010E943B126F5F7F4F8F4F2E
:100A90009F4F23E030E040E050E00E941312F80145
:100AA00022833383448355831682DF91CF911F9134
:100AB0000F91FF90EF90DF90CF90BF90AF909F90FD
:100AC0008F907F906F905F904F903F902F90089500
:100AD0001F93CF93DF93EC0118811D3209F4219607
:100AE000CE010E94840F9B01AC01A4E6B0E00E94FD
:100AF0003B12AB01BC01FE012991822F022E000C9A
:100B0000990BC0970A97B8F32E3231F58181082EE0
:100B1000000C990BC0978A309105F0F4AAE0A89FC9
:100B20009001A99F300D1124C901330FAA0BBB0BF3
:100B3000480F591F6A1F7B1F8281082E000C990BDA
:100B4000C0978A30910540F4092E000CAA0BBB0B0C
:100B5000480F591F6A1F7B1F1D3239F4709560952D
:100B6000509541955F4F6F4F7F4FCB01BA01DF9199
:100B7000CF911F910895FB0101900020E9F7319773
:100B8000AF01461B570BDC01ED91FC910280F38114
:100B9000E02D09948F929F92AF92BF920F931F9373
:100BA000CF93DF93CDB7DEB7A1970FB6F894DEBF32
:100BB0000FBECDBF19A2423008F44AE08E010F5D8E
:100BC0001F4F842E912CB12CA12CA50194010E94C1
:100BD0001312E62FB901CA01EA3004F5E05DD8012D
:100BE000EE938D01232B242B252B79F790E080E0C9
:100BF000109729F0BD0185E193E00E94BB05A19605
:100C00000FB6F894DEBF0FBECDBFDF91CF911F911D
:100C10000F91BF90AF909F908F900895E95CDFCFC8
:100C20004F925F926F927F928F929F92AF92BF92FC
:100C3000CF92DF92EF92FF920F931F93CF936B01AE
:100C40007C01742EAC019B010E94FE1168E371E0EF
:100C5000811126C046015701E894B7F82FEF3FEF06
:100C60004FE75FE7C501B4010E94FE1181110CC07E
:100C70002FEF3FEF4FE75FE7C501B4010E942D1052
:100C80006CE371E0181664F02FEF3FEF4FE75FE47D
:100C9000C701B6010E948C111816ACF460E471E033
:100CA00085E193E0CF911F910F91FF90EF90DF903E
:100CB000CF90BF90AF909F908F907F906F905F90FC
:100CC0004F900C94BB052FEF3FEF4FE75FECC70150
:100CD000B6010E942D1087FDE1CF20E030E0A90190
:100CE000C701B6010E942D1010E000E087FF0CC084
:100CF00041E06DE285E193E00E948604F7FAF0940A
:100D0000F7F8F09401E010E0C0E060E070E080E00F
:100D10009FE37C1641F020E030E040E251E40E9485
:100D20003210CF5FF6CFA70196010E94C10F4B0191
:100D30005C010E94AB102B013C014AE00E94CA05F5
:100D4000080F191FCC23C9F1C301B2010E94DA10A8
:100D50009B01AC01C501B4010E94C00F4B015C01B5
:100D600041E06EE285E193E00E9486040F5F1F4F31
:100D7000C15018F120E030E040E251E4C501B40177
:100D80000E9491112B013C010E94AB104B01B12C30
:100D9000A12C4AE0C501B4010E94CA05080F191F21
:100DA000C501B4010E94DA109B01AC01C301B2017C
:100DB0000E94C00F4B015C01DBCFC801CF911F9196
:100DC0000F91FF90EF90DF90CF90BF90AF909F90EA
:100DD0008F907F906F905F904F90089585ED8093F6
:100DE000BC008091F4019091F501A091F601B091C1
:100DF000F7010796A11DB11D23E0B695A79597951C
:100E000087952A95D1F72091BC0024FD03C010924C
:100E10003D0208954091F4015091F5016091F60171
:100E20007091F701452B462B472B69F30097A105DD
:100E3000B10541F025E32A95F1F700000197A109DA
:100E4000B109E1CF8091F3010C94B2021F920F928D
:100E50000FB60F9211242F933F934F935F936F938D
:100E60007F938F939F93AF93BF93EF93FF938CE602
:100E700092E00E940A01FF91EF91BF91AF919F9183
:100E80008F917F916F915F914F913F912F910F9033
:100E90000FBE0F901F9018951F920F920FB60F92D2
:100EA00011242F938F939F93EF93FF93E0917C02F4
:100EB000F0917D028081E0918202F091830282FDB7
:100EC0001BC09081809185028F5F8F732091860275
:100ED000821741F0E0918502F0E0E459FD4F958FD3
:100EE00080938502FF91EF919F918F912F910F90A9
:100EF0000FBE0F901F9018958081F4CF1F920F9214
:100F00000FB60F9211242F933F938F939F93AF931C
:100F1000BF938091640290916502A0916602B091A6
:100F200067023091630223E0230F2D3758F50196B5
:100F3000A11DB11D2093630280936402909365020A
:100F4000A0936602B0936702809168029091690253
:100F5000A0916A02B0916B020196A11DB11D809310
:100F6000680290936902A0936A02B0936B02BF91EA
:100F7000AF919F918F913F912F910F900FBE0F9046
:100F80001F90189526E8230F0296A11DB11DD2CF00
:100F90001F920F920FB60F9211242F933F934F93EE
:100FA0005F936F937F938F939F93AF93BF93EF93D1
:100FB000FF938091B900887F803609F44AC0F0F52C
:100FC000883209F4A5C018F5803109F499C0B8F445
:100FD000882309F4F5C0883009F492C0FF91EF919D
:100FE000BF91AF919F918F917F916F915F914F9141
:100FF0003F912F910F900FBE0F901F901895883141
:1010000009F486C0803251F780933C0214C08034CA
:1010100009F49BC040F48033B9F38833F9F6809328
:101020003C0285ECAEC0803509F483C0883509F4F4
:1010300094C0883499F60E94EE06D0CF883909F41E
:101040008AC038F5883729F050F4883611F0803797
:1010500029F683E080933D0210923B0255C0883808
:1010600009F479C0803919F0803809F0B7CF809140
:101070003B02803208F06FC0E0913B0281E08E0FAE
:1010800080933B028091BB00F0E0E55EFD4F8083E2
:101090003BC0803B39F0D0F4803A09F477C0883AFD
:1010A00009F09CCF84E080933D0210921A021092C6
:1010B0001902F0E0E0E009958091190281110FC05A
:1010C00081E0809319021092F90109C0803C09F473
:1010D000A8CF883C09F4A5CF883B09F07FCFE091E9
:1010E0001A0281E08E0F80931A02F0E0E750FE4F63
:1010F00080818093BB0090911A028091190229C0CF
:10110000809162028093BB0085EC8093BC0066CF27
:101110009091610280916002981758F5E091610208
:1011200081E08E0F80936102F0E0E05CFD4F8081F2
:10113000E9CFE091610281E08E0F8093610280919E
:10114000BB00F0E0E05CFD4F8083909161028091F4
:1011500060029817C8F285E8D8CFE091610281E07B
:101160008E0F809361028091BB00F0E0E05CFD4F48
:10117000808380913F0281115ECF81E080933E02A7
:1011800084EA8093BC0010923D0228CF85EC8093C6
:10119000BC0010923D0280913B02803230F4E0911D
:1011A0003B02F0E0E55EFD4F108260913B0270E093
:1011B0008BE192E0F0E0E0E0099510923B020ECF67
:1011C00010923C0238CFCF92DF92EF92FF920F93B2
:1011D0001F93E82FF92F05C001501109210931098A
:1011E00061F1908196239417B9F305C0015011095C
:1011F0002109310911F1908196239413F7CFC12C65
:10120000D12CE12CF12C0AC08FEFC81AD80AE80AB9
:10121000F80A0C151D052E053F0579F080818623FF
:10122000841791F36C2D7D2D8E2D9F2D1F910F9185
:10123000FF90EF90DF90CF90089560E070E080E045
:1012400090E01F910F91FF90EF90DF90CF90089565
:10125000ECE6F2E01382128288EE93E0A0E0B0E0C8
:1012600084839583A683B7832CE031E03183208388
:1012700025EC30E03587248724EC30E0378726875B
:1012800020EC30E0318B208B21EC30E0338B228B53
:1012900022EC30E0358B248B26EC30E0378B268B2C
:1012A000118E128E138E148EE9E0F3E013821282F7
:1012B00084839583A683B7838EE191E091838083B5
:1012C000E1E2F3E01082118213821282148215820D
:1012D000168217821086128611861386148615864A
:1012E00016861786118A108A128A138A148A158A1A
:1012F000168A108E178A118E128E138E148E158EEA
:1013000080E390E0978F868F8EE490E093A382A392
:1013100012A613A614A615A616A617A610AE11AEF1
:1013200012AE13AE14AE15AE10926703109268039E
:1013300010926D0310926E0310926F03109270035F
:10134000109275031092760310927B0310927C0327
:1013500010927D0310927E031092830310928403F7
:101360001092890310928A0310928B0310928C03BF
:101370001092910310929203109297031092980387
:101380001092990310929A0310929F031092A00357
:101390001092A5031092A6031092A7031092A8031F
:1013A0001092AD031092AE0382E08093BE031092C0
:1013B000BF031092C0031092C1031092C303109296
:1013C000C2031092C5031092C4031092C603109278
:1013D000C7031092C8031092C9031092CA03109257
:1013E000CB031092CC031092CD031092CE03109237
:1013F000CF031092D0031092D1031092D203109217
:10140000D3031092D4031092D5031092AF03E5E1F9
:10141000F3E01382128280E391E09183808387E27C
:10142000848384E1818784E0828713860895789499
:1014300084B5826084BD84B5816084BD85B58260D9
:1014400085BD85B5816085BD80916E00816080938A
:101450006E001092810080918100826080938100F3
:101460008091810081608093810080918000816003
:10147000809380008091B10084608093B10080915E
:10148000B00081608093B00080917A008460809386
:101490007A0080917A00826080937A0080917A004D
:1014A000816080937A0080917A00806880937A00CE
:1014B0001092C10080911A03886080931A0314E08F
:1014C00010931D0362E370E080E090E00E9446020A
:1014D0006091200385E193E00E94820368EE73E04F
:1014E00080E090E00E94460260E385E193E00E9484
:1014F0006D04CBE4D6E4CE010197F1F760E385E11A
:1015000093E00E946D042197F1F760E385E193E099
:101510000E946D0483E592E00197F1F760E285E1B6
:1015200093E00E946D0460911A03606240E085E1DF
:1015300093E00E94860410931B0340E06CE085E179
:1015400093E00E9486040E94D004C2E0C0931C0372
:1015500040E066E085E193E00E94860440E062E0BE
:1015600085E193E00E9486048BE39FE10197F1F708
:1015700061E08FE00E94F00160E080E10E94F001F4
:1015800060E08EE00E94F00161E089E00E94F001DD
:1015900061E08AE00E94F00164E471E085E193E09B
:1015A0000E94BB050E949D0465E571E085E193E022
:1015B0000E94BB056CEB72E080E090E00E94460266
:1015C000E0917C02F0917D02C083E0917802F0917D
:1015D00079021082E0917A02F0917B028FEC808395
:1015E00010928402E0918002F091810286E0808373
:1015F000E0917E02F0917F02808180618083E091A2
:101600007E02F0917F02808188608083E0917E027B
:10161000F0917F02808180688083E0917E02F0916A
:101620007F0280818F7D808343E0242E312C53E222
:10163000A52EB12C60E0862E60E0962EC1E060E021
:101640008FE00E94C201C1010197F1F761E08FE0D4
:101650000E94C201C5010197F1F760E08FE00E948E
:10166000C201EAEAF0E06491E6E9F0E08491E82F53
:10167000F0E0EE0FFF1FE458FF4F8591949100E4D6
:1016800012E42FE030E0462F0E94E3086115710557
:101690008105910529F06F5F7F4F8F4F9F4F9F709E
:1016A00095958795779567950E94DC102DEC3CEC1D
:1016B00048EE51E40E9432100E94A410643171057A
:1016C000810591050CF045C161E089E00E94C201ED
:1016D00061E08AE00E94C20164E671E08CE692E07B
:1016E0000E94BB0565E771E08CE692E00E94BB05B5
:1016F0000E94D00468E771E085E193E00E94BB0599
:101700000E949D0468E871E085E193E00E94BB05BA
:10171000ECEBF0E08491E8EAF0E00491E4E9F0E039
:101720001491112309F429C381110E949901E12F19
:10173000F0E0EE0FFF1FE458FF4FA591B4918C919C
:10174000082309F41AC38CE692E00E94EA001816F6
:1017500019060CF012C38CE692E00E94C800803596
:1017600009F00BC38CE692E00E94EA0018161906F5
:101770000CF003C38CE692E00E94C800D82F809141
:10178000C6039091C703A091C803B091C903019605
:10179000A11DB11D8093C6039093C703A093C803F6
:1017A000B093C903D43209F4C5C2E091C003D53265
:1017B0000CF0E8C0DA3019F0DD3009F0C9C2EF30C2
:1017C00008F06DC1F0E0E155FC4F1082E090AE03EF
:1017D000EE2009F466C12091AF03822F022E000C87
:1017E000990B3FEB320F363008F0D8C0C79782957F
:1017F000807F9091B003292F092E000C330B4FEB03
:10180000490F463008F0D2C027533109820F90911A
:10181000AD03891331C18091D2039091D303A0917C
:10182000D403B091D5030196A11DB11D8093D203BD
:101830009093D303A093D403B093D5038091C103B5
:10184000882399F08091CA039091CB03A091CC0397
:10185000B091CD030196A11DB11D8093CA03909351
:10186000CB03A093CC03B093CD031091BE031123FF
:1018700009F4A5C0113009F044C08BE493E00E9444
:101880009B0289E593E00E949B028091C10388231B
:10189000C1F187E0E1E3F3E0A3E2B3E001900D9250
:1018A0008A95E1F787E0E8E3F3E0AAE2B3E001908C
:1018B0000D928A95E1F780914103909142039093B4
:1018C000400380933F03809145039091460390939A
:1018D0004403809343030E9478026093470370930C
:1018E00048038093490390934A0310932203109373
:1018F000210387E693E00E94840285E793E00E943B
:1019000084020091C4031091C5030115110509F467
:101910004DC2E091C403F091C50366A177A1F8011F
:1019200086A197A10E946812892B09F03FC2B801D5
:10193000C80140960E9471120E947802F80160A3CB
:1019400071A382A393A321E025A324A302A513A539
:10195000DCCF60E089E00E94C20160E08AE00E9482
:10196000C2010E94D00462E971E085E193E00E9427
:10197000BB056CE271E080E090E00E9446020E94AC
:10198000D004C6CEDA3209F41ACFDC3209F0E0C155
:101990008091AD038D278093AD0311CF2156263062
:1019A00018F48755910923CFC09721CF91569630CF
:1019B00018F4275531092ACF2053310927CF89E55B
:1019C00093E00E949B028091C1038823A1F187E0EC
:1019D000E1E3F3E0A3E2B3E001900D928A95E1F731
:1019E00087E0E8E3F3E0AAE2B3E001900D928A9584
:1019F000E1F78091410390914203909340038093DB
:101A00003F03809145039091460390934403809354
:101A100043030E94780260934703709348038093C6
:101A2000490390934A03C0932203C093210383E8A0
:101A300093E00E94840280919B0390919C03A0916B
:101A40009D03B0919E038093970390939803A09376
:101A50009903B0939A030E94780260939303709362
:101A600094038093950390939603C0939203C0933D
:101A700091038FE993E043CF8091CE039091CF0300
:101A8000A091D003B091D1030196A11DB11D809307
:101A9000CE039093CF03A093D003B093D103E12C56
:101AA00085C19091BF03911144C08091AF038734E9
:101AB000E1F56091B003062E000C770B80EA91E00F
:101AC0000E945D12892B89F166EA71E081EB93E057
:101AD0000E946812892BF1F4C093BE038091C20367
:101AE0009091C3039093C5038093C4030091C403F2
:101AF0001091C5030115110591F26FEA73E0F80129
:101B000086A197A10E94681297FF49C1F80182A59A
:101B100093A5E8CF6AEA71E081EB93E00E94681236
:101B2000892B19F41092BE03D9CF82E08093BE03B3
:101B3000D5CFE091BE03E23009F44BC08091AF03F2
:101B4000882309F446C020E2E29FF0011124E92B2A
:101B50003197EC32F10508F03CC0EF54F24F0C9491
:101B60003512DD0D1E0E250E2C0E2F0E5D0E6B0E8A
:101B7000780E850EE90DE90DE90DE90DE90DE90D88
:101B8000E90DE90DE90DE90DE90DE90DE90DE90DA5
:101B9000E90DE90DE90DE90DE90DE90DE90DE90D95
:101BA000E90DDD0D170E1E0E250E2C0E2F0E360E16
:101BB000430E500EE90DE90D920E8FEA93E00E945C
:101BC000680560935F037093600380936103909353
:101BD00062030091C4031091C503E090BF03011597
:101BE000110509F45CCFE091C403F091C50366A12F
:101BF00077A1F80186A197A10E946812892B09F0AC
:101C00004ECFF80120A531A5F12CE216F3060CF415
:101C100046CF2E153F0539F44FE050E06FEA73E0F0
:101C2000C8010E947812F80102A513A5D6CF91E051
:101C3000813409F090E09093C103CBCF61E373E06E
:101C40008FEA93E00E94E104C4CF91E0833509F06C
:101C500090E090933703BDCF68E373E0F1CF91E05C
:101C6000873509F090E090933E03B3CF8FEA93E07D
:101C70000E946805609371037093720380937303ED
:101C800090937403A6CF8FEA93E00E946805609357
:101C90007F0370938003809381039093820399CF95
:101CA0008FEA93E00E94840F609351037093520374
:101CB00080935303909354038CCF91E081330CF4C1
:101CC00090E09093C103082E000C990B909342036F
:101CD000809341037ECF8FEA93E00E94840F60934C
:101CE0009B0370939C0380939D0390939E0371CFFD
:101CF0008FEA93E00E9468056093A9037093AA039A
:101D00008093AB039093AC0364CF8FEA93E00E947F
:101D1000680560938D0370938E0380938F03909377
:101D2000900357CF082E000C990B90934603809395
:101D300045034FCF1092C0031092BF031092AD0322
:101D4000F2E0F093BE031092AE031092C1030ACDED
:101D5000EE3040F481E08E0F8093C003F0E0E15557
:101D6000FC4FD0838091AE038111FCCC8091AD03F8
:101D7000F82EFD26F092AD03F5CC64E670E080E02D
:101D800090E00E9446028114910409F458CC0E940C
:101D9000F600882309F453CC0E94000050CC892B14
:101DA00009F47DCE1092C5031092C4038091BF0345
:101DB0008F5F8093BF031092C00381E0DA3209F095
:101DC00080E08093AE03EE2009F4CCCC8091210317
:101DD000882309F4C7CC10922203609125037091E7
:101DE000260380912703909128030E94DA1028E2AD
:101DF0003BE64EE65EE40E9432106B017C0160918E
:101E000023037091240390E080E00E94DA109B018C
:101E1000AC01C701B6010E94C10F2B013C018091AA
:101E20002903882321F077FA709477F870946091F1
:101E30002C0370912D0380912E0390912F030E940B
:101E4000DA1028E23BE64EE65EE40E9432106B01B7
:101E50007C0160912A0370912B0390E080E00E9446
:101E6000DA109B01AC01C701B6010E94C10F6B01E2
:101E70007C0180913003882321F0F7FAF094F7F881
:101E8000F09461E089E00E94C20161E08AE00E9472
:101E9000C2016EEA71E08CE692E00E94BB0565E744
:101EA00071E08CE692E00E94BB050E94D0046EEACD
:101EB00071E085E193E00E94BB050E949D0460EC07
:101EC00071E085E193E00E94BB0543E0C301B201EC
:101ED0000E94100666EC71E085E193E00E94BB056C
:101EE00043E0C701B6010E94100668EE73E080E08F
:101EF00090E00E94460260E089E00E94C20160E03A
:101F00008AE00E94C2012ECC1F93FC0199278827EA
:101F1000BC01E89411911032E9F3193010F01E3031
:101F2000C8F31B3251F01D3249F4689406C00E9478
:101F3000AB0F610F711D811D911D119110531A304E
:101F4000B0F33EF490958095709561957F4F8F4FDB
:101F50009F4F1F910895592F482F372F262F660F17
:101F6000771F881F991F660F771F881F991F620FA1
:101F7000731F841F951F660F771F881F991F089571
:101F80005058BB27AA270E94D80F0C9452110E94C8
:101F9000441138F00E944B1120F039F49F3F19F49E
:101FA00026F40C9441110EF4E095E7FB0C943B11E0
:101FB000E92F0E94631158F3BA1762077307840769
:101FC000950720F079F4A6F50C9485110EF4E095B0
:101FD0000B2EBA2FA02D0B01B90190010C01CA01E3
:101FE000A0011124FF27591B99F0593F50F4503E8E
:101FF00068F11A16F040A22F232F342F4427585F80
:10200000F3CF469537952795A795F0405395C9F797
:102010007EF41F16BA0B620B730B840BBAF091504F
:10202000A1F0FF0FBB1F661F771F881FC2F70EC0EE
:10203000BA0F621F731F841F48F4879577956795C1
:10204000B795F7959E3F08F0B0CF9395880F08F0AD
:102050009927EE0F9795879508950E94171108F418
:1020600081E008950E9446100C9452110E944B1179
:1020700058F00E94441140F029F45F3F29F00C947D
:102080003B1151110C9486110C9441110E94631163
:1020900068F39923B1F3552391F3951B550BBB2797
:1020A000AA2762177307840738F09F5F5F4F220FDC
:1020B000331F441FAA1FA9F335D00E2E3AF0E0E8D3
:1020C00032D091505040E695001CCAF72BD0FE2F1D
:1020D00029D0660F771F881FBB1F261737074807B1
:1020E000AB07B0E809F0BB0B802DBF01FF27935869
:1020F0005F4F3AF09E3F510578F00C943B110C94E1
:1021000086115F3FE4F3983ED4F386957795679503
:10211000B795F7959F5FC9F7880F911D969587959D
:1021200097F90895E1E0660F771F881FBB1F6217BC
:1021300073078407BA0720F0621B730B840BBA0B7A
:10214000EE1F88F7E09508950E94AB106894B111D6
:102150000C94861108950E946B1188F09F5798F097
:10216000B92F9927B751B0F0E1F0660F771F881F9C
:10217000991F1AF0BA95C9F714C0B13091F00E94B6
:102180008511B1E008950C948511672F782F882769
:10219000B85F39F0B93FCCF3869577956795B395DD
:1021A000D9F73EF490958095709561957F4F8F4F4C
:1021B0009F4F0895E89409C097FB3EF49095809551
:1021C000709561957F4F8F4F9F4F9923A9F0F92FFD
:1021D00096E9BB279395F695879577956795B7957B
:1021E000F111F8CFFAF4BB0F11F460FF1BC06F5F61
:1021F0007F4F8F4F9F4F16C0882311F096E911C073
:10220000772321F09EE8872F762F05C0662371F093
:1022100096E8862F70E060E02AF09A95660F771FA7
:10222000881FDAF7880F9695879597F90895990F83
:102230000008550FAA0BE0E8FEEF16161706E80790
:10224000F907C0F012161306E407F50798F0621BB1
:10225000730B840B950B39F40A2661F0232B242B86
:10226000252B21F408950A2609F4A140A6958FEFA5
:10227000811D811D089597F99F6780E870E060E0F7
:1022800008959FEF80EC089500240A94161617060F
:1022900018060906089500240A9412161306140657
:1022A00005060895092E0394000C11F4882352F0BA
:1022B000BB0F40F4BF2B11F460FF04C06F5F7F4F72
:1022C0008F4F9F4F089557FD9058440F551F59F059
:1022D0005F3F71F04795880F97FB991F61F09F3F13
:1022E00079F087950895121613061406551FF2CF3C
:1022F0004695F1DF08C0161617061806991FF1CF8C
:1023000086957105610508940895E894BB276627B2
:102310007727CB0197F908950E94171108F48FEFE2
:1023200008950E94A4110C9452110E94441138F097
:102330000E944B1120F0952311F00C943B110C944A
:10234000411111240C9486110E94631170F3959F22
:10235000C1F3950F50E0551F629FF001729FBB279C
:10236000F00DB11D639FAA27F00DB11DAA1F649F38
:102370006627B00DA11D661F829F2227B00DA11DEB
:10238000621F739FB00DA11D621F839FA00D611D71
:10239000221F749F3327A00D611D231F849F600D92
:1023A000211D822F762F6A2F11249F5750409AF0BB
:1023B000F1F088234AF0EE0FFF1FBB1F661F771F47
:1023C000881F91505040A9F79E3F510580F00C9412
:1023D0003B110C9486115F3FE4F3983ED4F386954D
:1023E00077956795B795F795E7959F5FC1F7FE2BB2
:1023F000880F911D9695879597F908950E9417115A
:10240000880B990B0895DB018F939F930E943B12D9
:10241000BF91AF91A29F800D911DA39F900DB29F80
:10242000900D11240895A1E21A2EAA1BBB1BFD01D9
:102430000DC0AA1FBB1FEE1FFF1FA217B307E407A3
:10244000F50720F0A21BB30BE40BF50B661F771FFB
:10245000881F991F1A9469F76095709580959095DB
:102460009B01AC01BD01CF010895EE0FFF1F059048
:10247000F491E02D09940E944E12A59F900DB49FF7
:10248000900DA49F800D911D11240895B7FF0C9409
:102490003B120E943B12821B930B0895A29FB00136
:1024A000B39FC001A39F700D811D1124911DB29F88
:1024B000700D811D1124911D0895FC0181918617D5
:1024C00021F08823D9F7992708953197CF010895EE
:1024D000FB01DC018D91019080190110D9F3990B5A
:1024E0000895FB01DC0101900D920020E1F70895B1
:1024F000FB01DC014150504048F001900D9200205A
:10250000C9F701C01D9241505040E0F70895F8947A
:10251000FFCF0000400014005400000000002C0118
:102520008C00B9007901EA00C800DC00000000005E
:10253000530326036A0418031F031C031903000036
:102540000000DB048C006A0469046E616E00696E31
:1025500066006F766600506F74686F6C6520446526
:10256000746563746F7200506C6561736520776188
:1025700069742E2E2E004F626A6563742064657440
:10258000656374656421000D0A004F6273746163B2
:102590006C652061686561642100536C6F7720640D
:1025A0006F776E00447269766520736166656C7939
:1025B0002100504E41424C00524D430047474100DC
:1025C000506F74686F6C65206465746563746564CE
:1025D00021004C61743A20002C204C6F6E3A200090
:107E0000112484B714BE81FFF0D085E080938100F7
:107E100082E08093C00088E18093C10086E0809377
:107E2000C20080E18093C4008EE0C9D0259A86E02C
:107E300020E33CEF91E0309385002093840096BBD3
:107E4000B09BFECF1D9AA8958150A9F7CC24DD24C4
:107E500088248394B5E0AB2EA1E19A2EF3E0BF2EE7
:107E6000A2D0813461F49FD0082FAFD0023811F036
:107E7000013811F484E001C083E08DD089C08234E0
:107E800011F484E103C0853419F485E0A6D080C0E4
:107E9000853579F488D0E82EFF2485D0082F10E0AE
:107EA000102F00270E291F29000F111F8ED06801E7
:107EB0006FC0863521F484E090D080E0DECF843638
:107EC00009F040C070D06FD0082F6DD080E0C81688
:107ED00080E7D80618F4F601B7BEE895C0E0D1E017
:107EE00062D089930C17E1F7F0E0CF16F0E7DF06D8
:107EF00018F0F601B7BEE89568D007B600FCFDCFD4
:107F0000A601A0E0B1E02C9130E011968C91119780
:107F100090E0982F8827822B932B1296FA010C0160
:107F200087BEE89511244E5F5F4FF1E0A038BF0790
:107F300051F7F601A7BEE89507B600FCFDCF97BE46
:107F4000E89526C08437B1F42ED02DD0F82E2BD052
:107F50003CD0F601EF2C8F010F5F1F4F84911BD097
:107F6000EA94F801C1F70894C11CD11CFA94CF0C13
:107F7000D11C0EC0853739F428D08EE10CD085E9AC
:107F80000AD08FE07ACF813511F488E018D01DD067
:107F900080E101D065CF982F8091C00085FFFCCF94
:107FA0009093C60008958091C00087FFFCCF809118
:107FB000C00084FD01C0A8958091C6000895E0E648
:107FC000F0E098E1908380830895EDDF803219F02E
:107FD00088E0F5DFFFCF84E1DECF1F93182FE3DFCA
:107FE0001150E9F7F2DF1F91089580E0E8DFEE27F6
:047FF000FF270994CA
:027FFE00040479
:00000001FF
